:040000008031212802
:10000800803120007F08F100911E1E282300190866
:10001800F0007008F2007208013A031D162820004B
:100028008E141B28F208031D1B2820008E10013097
:1000380020008E067108FF00090080314228230045
:100048008C018D018E01FF3021008C00EF308D0076
:10005800FC308E0022009D131D1123001D161E1258
:100068009D179F151E159C010C309B008B172100B6
:1000780091160B1720000E108E1041282000803199
:0200880023282B
:020000040001F9
:04000E00E4C9FFDE64
:00000001FF
