:0400000080314D28D6
:10000800803120007F08F100911E3628230019084E
:10001800F0007008F2007208013A031D22287A08DD
:100028007904031D222820008E140D1264309500D7
:100038008B160130F9000030FA002A287208023ABB
:10004800031D2A2820008E10F901FA0120000E1441
:10005800F930F0002F28F00B2E2832283328200002
:100068000E104A280B1D4A2810308D060B1114302B
:1000780077067804031D44288B12F701F8014A28F3
:100088000130F7070030F83D643095007108FF0033
:1000980009008031742823008C018D018E01FF3006
:1000A80021008C00EF308D00FC308E0022009D1363
:1000B8001D1123001D161E129D179F151E159C014C
:1000C8000C309B00210095129511151495141511EB
:1000D8008B1791160B1720000E108E100D16732813
:0E00E800F701F801F901FA01200080314F28DC
:020000040001F9
:04000E00E4C9FFDE64
:00000001FF
