:0400000080315F28C4
:10000800803120007F08F100911E3B2891122300C7
:100018001908F0007008F2007208013A031D24283C
:100028007A087904031D242820008E140D126430E8
:1000380095008B160B110230F9000030FA002F28BA
:100048007208023A031D2F28013079067A04031D2D
:100058002F28F901FA0120000E14F930F000342895
:10006800F00B33283728382820000E105C280B198D
:100078008B1E502810308D060B111430770678042B
:10008800031D49288B120D1656280130F70700303A
:10009800F83D643095005C288B1C5C288B108B1213
:1000A8000D168E10F701F8010130F9000030FA0042
:1000B8007108FF0009008031882823008C018D0118
:1000C8008E01FF3021008C00EF308D00FC308E0057
:1000D80022009D131D1123001D161E129D179F152A
:1000E8001E159C010C309B002100951295111514CA
:1000F800951415118B1791160B1715130B16200055
:100108000E108E100D168728F701F801F901FA0173
:0601180020008031612887
:020000040001F9
:04000E00E4C9FFDE64
:00000001FF
