:0400000080316328C0
:10000800803120007F08F100911E3D2891122300C5
:100018001908F0007008F2007208013A031D24283C
:100028007A087904031D242820008E140D126430E8
:1000380095008B160B110230F9000030FA003128B8
:100048007208023A031D3128013079067A04031D2B
:10005800312820008E10F901FA0120000E14F93021
:10006800F0003628F00B352839283A2820000E10E1
:1000780060280B198B1E542810308D060B11143074
:1000880077067804031D4D288B120D16F701F80129
:1000980060280130F7070030F83D6430950060288B
:1000A8008B1C60288B108B120D168E10F701F8012F
:1000B8000130F9000030FA007108FF0009008031B2
:1000C8008C2823008C018D018E01FF3021008C00CB
:1000D800EF308D00FC308E0022009D131D1123008F
:1000E8001D161E129D179F151E159C010C309B0096
:1000F8002100951295111514951415118B17911649
:100108000B1715130B1620000E108E100D168B28CA
:0E011800F701F801F901FA0120008031652895
:020000040001F9
:04000E00E4C9FFDE64
:00000001FF
