:0400000080315028D3
:10000800803120007F08F100911E382891122300CA
:100018001908F0007008F2007208013A031D24283C
:100028007A087904031D242820008E140D126430E8
:1000380095008B160B110130F9000030FA002C28BE
:100048007208023A031D2C2820008E10F901FA01CB
:1000580020000E14F930F0003128F00B3028342835
:10006800352820000E104D280B1D4D2810308D0608
:100078000B11143077067804031D47288B120D16D0
:10008800F701F8014D280130F7070030F83D6430DA
:1000980095007108FF0009008031772823008C0142
:1000A8008D018E01FF3021008C00EF308D00FC3077
:1000B8008E0022009D131D1123001D161E129D1770
:1000C8009F151E159C010C309B002100951295115F
:1000D8001514951415118B1791160B1720000E1077
:1000E8008E100D167628F701F801F901FA012000A3
:0400F80080315228D9
:020000040001F9
:04000E00E4C9FFDE64
:00000001FF
