:10000000803102288331962B8531492D85314E2D43
:100010008531552D8531582D8531602D8531672DE0
:040020008531722D87
:10072C00D201D30120008531032D70082000CD00AB
:10073C007108CE00CF01D001D101D10A08000330DD
:10074C00F000F00BA72BAA2B20000E140330F000A6
:10075C00F00BAE2BB12B20000E100800F401F501AC
:10076C00701CBC2B7208F4077308F53D0130F23590
:10077C00F30D890BBD2B0130F136F00C890BC22B1C
:10078C0071087004031DB62B7508F101F10774088C
:10079C00F001F00708000030FB000030FA000030D8
:1007AC00F9000030F800701CE32B7408F80775088A
:1007BC00F93D7608FA3D7708FB3D0130F435F50D2F
:1007CC00F60DF70D890BE42B0130F336F20CF10C1E
:1007DC00F00C890BEB2B7308720471047004031D6D
:1007EC00D92B7B08F3007A08F2007908F10078081D
:1007FC00F00008002000D108031D0B2C0130F00084
:10080C000030F10083319B23843120005008F30029
:10081C004F08F2004E08F1004D08F0004130F7008F
:10082C00C630F6004E30F5006D30F4008331D12324
:10083C008431393070072000CD003030713DCE004E
:10084C000030723DCF000030733DD0004D08A80041
:10085C004E08A9004F08AA005008AB001030AC009D
:10086C00AB37AA0CA90CA80CAC0B362CFF30280506
:10087C00A6007F302905A70008002000A501A31FB2
:10088C004E2CA209A309A20A0319A30AA501A50AC1
:10089C00A11F552CA009A109A00A0319A10A21081E
:1008AC00200403197C2CA401A40AA11B672C013081
:1008BC00A035A10D890B5E2C0130FC007C08A4072F
:1008CC005B2C21082302031D6D2C20082202031C23
:1008DC00732C2008A2022108A33B0130A136A00CE6
:1008EC00890B742C0130A402031D672C25080319F5
:1008FC00842CA209A309A20A0319A30A2308A101A3
:10090C00A1072208A001A00708007808FA007708C0
:10091C00F9000430FA36F90C890B902C79083F3920
:10092C00FB007B082000A300013071067204031940
:10093C0023177408FA007308F9000630FA36F90C1C
:10094C00890BA42C0F307905FB007708FC000330D1
:10095C00FC35FF3E031DAE2C7C357B04FD007D0871
:10096C00A0007608FA007508F9007A08F900FA0177
:10097C0003307905FB007308FC000130FC35FF3EA9
:10098C00031DC42C7C357B04FD007D08A10075087B
:10099C00F9007908A200911123082400910020008D
:1009AC00911DD52C91110330F900F90BDB2CDE2CA9
:1009BC0020002008240091002000911DE22C9111B0
:1009CC000330F900F90BE82CEB2C20002108240053
:1009DC0091002000911DEF2C91110330F900F90BBF
:1009EC00F52CF82C20002208240091002000911DE9
:1009FC00FC2C91118331A523080023008C018D015F
:100A0C008E0121008D018E0120008D018E01403060
:100A1C0024009400223095000030F0000030F100EA
:100A2C0083319B23853120008E100E100030BA00CC
:100A3C000030B9000030B8000030B700C701C80161
:100A4C00C901CA01CB01CC01C101C201C301C4015E
:100A5C00C501C6010730A0000030A100843100247C
:100A6C00853120002708A301A3072608A201A207AD
:100A7C0084314324853120002108B601B6072008B3
:100A8C00B501B5077B2D0B30C7000230C800622DB5
:100A9C00FF30C7000330C800C901CA01782DC70157
:100AAC00C8016B2DFF30C7000330C800D330C9001C
:100ABC000230772DC701C801D330C9000230CA00FB
:100ACC006D2D4330C7000130C800C901CA01FF3089
:100ADC00CB000330CC008A2DC701C801FF30C90000
:100AEC000330CA00CB01CC018A2D3608003A031919
:100AFC00802D8A2D350884000730040203188A2DB6
:100B0C0080310435043E820000303A02031D982DDA
:100B1C0036303902031D982DEE303802031D982D06
:100B2C0081303702031CA02DC701C801C901CA01BD
:100B3C00CB01CC010730A0000030A100843100248F
:100B4C00853120002708A301A3072608A201A207CC
:100B5C0084314324853120002008013EBB00003045
:100B6C00213DBC000730A0000030A10084310024DE
:100B7C00853120002708A301A3072608A201A2079C
:100B8C0084314324853120002008013EBD00003013
:100B9C00213DBE000730A0000030A10084310024AC
:100BAC00853120002708A301A3072608A201A2076C
:100BBC0084314324853120002008013EBF000030E1
:100BCC00213DC00042084802031DEE2D410847029A
:100BDC000318042EFF30F000FF30F1003C08F30145
:100BEC00F3073B08F201F2078331B4238531710816
:100BFC002000BC01BC077008BB01BB0744084A02BB
:100C0C00031D0A2E430849020318202EFF30F00062
:100C1C00FF30F1003E08F301F3073D08F201F20743
:100C2C008331B423853171082000BE01BE077008E2
:100C3C00BD01BD0746084C02031D262E45084B027C
:100C4C0003183C2EFF30F000FF30F1004008F30198
:100C5C00F3073F08F201F2078331B42385317108A1
:100C6C002000C001C0077008BF01BF07420848063A
:100C7C00031D422E410847060319BA2F48084206A5
:100C8C00031D4A2E4708410603199E2E3C08803A44
:100C9C00FF0080307F02031D552E01303B02031CE8
:100CAC006D2E20004109B1004209B200B10A0319AE
:100CBC00B20A47083107B3004808323DB4003C087B
:100CCC003402031D6B2E3B083302031C932E2000B1
:100CDC00BC1F9A2E3C08F101F1073B08F001F0070C
:100CEC00FF30F200FF30F3008331B4238531200054
:100CFC004709B1004809B200B10A0319B20A410808
:100D0C003107B3004208323DB40071083402031DB0
:100D1C00912E7008330203189A2E4808C201C2079C
:100D2C004708C101C1079E2E3B08C1073C08C23DC4
:100D3C004A084406031DA42E490843060319F82E3D
:100D4C003E08803AFF0080307F02031DAF2E013039
:100D5C003D02031CC72E20004309B1004409B20018
:100D6C00B10A0319B20A49083107B3004A08323DE7
:100D7C00B4003E083402031DC52E3D083302031C8B
:100D8C00ED2E2000BE1FF42E3E08F101F1073D08A8
:100D9C00F001F007FF30F200FF30F3008331B42391
:100DAC00853120004909B1004A09B200B10A031982
:100DBC00B20A43083107B3004408323DB40071084D
:100DCC003402031DEB2E700833020318F42E4A086C
:100DDC00C401C4074908C301C307F82E3D08C30763
:100DEC003E08C43D4C084606031DFE2E4B08450626
:100DFC000319522F4008803AFF0080307F02031DF8
:100E0C00092F01303F02031C212F20004509B1009E
:100E1C004609B200B10A0319B20A4B083107B300F4
:100E2C004C08323DB40040083402031D1F2F3F080C
:100E3C003302031C472F2000C01F4E2F4008F10126
:100E4C00F1073F08F001F007FF30F200FF30F3002C
:100E5C008331B423853120004B09B1004C09B20019
:100E6C00B10A0319B20A45083107B3004608323DEE
:100E7C00B40071083402031D452F700833020318A7
:100E8C004E2F4C08C601C6074B08C501C507522F8B
:100E9C003F08C5074008C63D5308803AFF00833021
:100EAC007F02031D5B2FFF30520203188C2F013081
:100EBC002000D2070030D33D42085302031D682F97
:100ECC00410852020318702F5308C201C20752087E
:100EDC00C101C10744085302031D762F4308520277
:100EEC0003187E2F5308C401C4075208C301C3075B
:100EFC0046085302031D842F4508520203188C2FF9
:100F0C005308C601C6075208C501C5070030F100D9
:100F1C000030F20020004208F401F4074108F3010C
:100F2C00F3074408F601F6074308F501F5074608F0
:100F3C00F801F8074508F701F70784318B24853150
:100F4C0004302000B2003D30B100B10BAB2FB20B1E
:100F5C00AB2FB02F14302000B7070030B83D003055
:100F6C00B93D0030BA3D3C2E44084A06031DC02F43
:100F7C0043084906031D442E46084C06031DC82F82
:100F8C0045084B06031D442E48084704031DE82F53
:100F9C004A084904031DE82F4C084B04031DE82F95
:100FAC0000303A02031DE42F36303902031DE42FC2
:100FBC00EE303802031DE42F81303702031CE82F7A
:100FCC008E14630002302000B3004530B200A9300B
:100FDC00B100B10BEF2FB20BEF2FB30BEF2FF62F9E
:100FEC00D0302000B7070730B83D0030B93D003095
:040FFC00BA3D302D9D
:020000040001F9
:04000E00E4C9FFDE64
:00000001FF
